{
  "transactions": [
    {
      "hash": "0xfb530adfbed2c8b4148e3ebf892259a19611af0ce51db53e7d6492163b742e12",
      "transactionType": "CREATE",
      "contractName": "MockProofVerifier",
      "contractAddress": "0x31cbd020efd160fc672bd8dfba1a4678fe94358b",
      "function": null,
      "arguments": null,
      "transaction": {
        "from": "0xa60d26d641fc807c9659df3f1a5e24dc54c6bad7",
        "gas": "0x21048",
        "value": "0x0",
        "input": "0x6080806040523460145760ea90816100198239f35b5f80fdfe60808060405260043610156011575f80fd5b5f3560e01c631e8e1e13146023575f80fd5b3460b057604036600319011260b05760043567ffffffffffffffff811160b0573660238201121560b057806004013567ffffffffffffffff811160b0573691016024011160b05760243567ffffffffffffffff811160b0573660238201121560b05780600401359067ffffffffffffffff821160b057602490369260051b01011160b05780600160209252f35b5f80fdfea2646970667358221220b6957e78d5fb902fb0bc9f7663615ad5e493aaca82fcb4710c9d3d1787ba39a964736f6c63430008210033",
        "nonce": "0x22",
        "chainId": "0xaa36a7"
      },
      "additionalContracts": [],
      "isFixedGasLimit": false
    },
    {
      "hash": "0x7904fb8aed382d6ef4ab5620911b6849c6db0abeed562ea6b21d3c6dc4fa1a5a",
      "transactionType": "CREATE",
      "contractName": "MockProofVerifier",
      "contractAddress": "0xc7039795003d558342a6e49bde271219319dd38e",
      "function": null,
      "arguments": null,
      "transaction": {
        "from": "0xa60d26d641fc807c9659df3f1a5e24dc54c6bad7",
        "gas": "0x21048",
        "value": "0x0",
        "input": "0x6080806040523460145760ea90816100198239f35b5f80fdfe60808060405260043610156011575f80fd5b5f3560e01c631e8e1e13146023575f80fd5b3460b057604036600319011260b05760043567ffffffffffffffff811160b0573660238201121560b057806004013567ffffffffffffffff811160b0573691016024011160b05760243567ffffffffffffffff811160b0573660238201121560b05780600401359067ffffffffffffffff821160b057602490369260051b01011160b05780600160209252f35b5f80fdfea2646970667358221220b6957e78d5fb902fb0bc9f7663615ad5e493aaca82fcb4710c9d3d1787ba39a964736f6c63430008210033",
        "nonce": "0x23",
        "chainId": "0xaa36a7"
      },
      "additionalContracts": [],
      "isFixedGasLimit": false
    },
    {
      "hash": "0xdfb5e13aba35f4bc2150e09b0bb135ab73b48af309017e61ad676c1af6024e96",
      "transactionType": "CALL",
      "contractName": null,
      "contractAddress": "0x36c76e4b28997698819356c0c18e5892d168893b",
      "function": "setZKVerifiers(address,address)",
      "arguments": [
        "0x31Cbd020Efd160Fc672bD8DfBa1A4678fE94358b",
        "0xC7039795003d558342A6e49bdE271219319dd38E"
      ],
      "transaction": {
        "from": "0xa60d26d641fc807c9659df3f1a5e24dc54c6bad7",
        "to": "0x36c76e4b28997698819356c0c18e5892d168893b",
        "gas": "0x17b16",
        "value": "0x0",
        "input": "0xa3057c9f00000000000000000000000031cbd020efd160fc672bd8dfba1a4678fe94358b000000000000000000000000c7039795003d558342a6e49bde271219319dd38e",
        "nonce": "0x24",
        "chainId": "0xaa36a7"
      },
      "additionalContracts": [],
      "isFixedGasLimit": false
    }
  ],
  "receipts": [
    {
      "status": "0x1",
      "cumulativeGasUsed": "0x97ccb6",
      "logs": [],
      "logsBloom": "0x00000000000000000000000000000000000000000000000000000000000000000000000000000000000000000000000000000000000000000000000000000000000000000000000000000000000000000000000000000000000000000000000000000000000000000000000000000000000000000000000000000000000000000000000000000000000000000000000000000000000000000000000000000000000000000000000000000000000000000000000000000000000000000000000000000000000000000000000000000000000000000000000000000000000000000000000000000000000000000000000000000000000000000000000000000000",
      "type": "0x2",
      "transactionHash": "0x7904fb8aed382d6ef4ab5620911b6849c6db0abeed562ea6b21d3c6dc4fa1a5a",
      "transactionIndex": "0x64",
      "blockHash": "0xf2ba459c732e0e5888e5fbd7fed2b0f0c4da04a7a0bccc280113c6c5cf5fe609",
      "blockNumber": "0x9f5880",
      "gasUsed": "0x1965f",
      "effectiveGasPrice": "0xf4249",
      "from": "0xa60d26d641fc807c9659df3f1a5e24dc54c6bad7",
      "to": null,
      "contractAddress": "0x31cbd020efd160fc672bd8dfba1a4678fe94358b"
    },
    {
      "status": "0x1",
      "cumulativeGasUsed": "0xb386e7",
      "logs": [],
      "logsBloom": "0x00000000000000000000000000000000000000000000000000000000000000000000000000000000000000000000000000000000000000000000000000000000000000000000000000000000000000000000000000000000000000000000000000000000000000000000000000000000000000000000000000000000000000000000000000000000000000000000000000000000000000000000000000000000000000000000000000000000000000000000000000000000000000000000000000000000000000000000000000000000000000000000000000000000000000000000000000000000000000000000000000000000000000000000000000000000",
      "type": "0x2",
      "transactionHash": "0xfb530adfbed2c8b4148e3ebf892259a19611af0ce51db53e7d6492163b742e12",
      "transactionIndex": "0x71",
      "blockHash": "0xf2ba459c732e0e5888e5fbd7fed2b0f0c4da04a7a0bccc280113c6c5cf5fe609",
      "blockNumber": "0x9f5880",
      "gasUsed": "0x1965f",
      "effectiveGasPrice": "0xf4249",
      "from": "0xa60d26d641fc807c9659df3f1a5e24dc54c6bad7",
      "to": null,
      "contractAddress": "0xc7039795003d558342a6e49bde271219319dd38e"
    },
    {
      "status": "0x1",
      "cumulativeGasUsed": "0xb4995b",
      "logs": [
        {
          "address": "0x36c76e4b28997698819356c0c18e5892d168893b",
          "topics": [
            "0x223cd499d3668b62858590d8798af8903b21f63c156a526c57a174859c6a6945",
            "0x00000000000000000000000031cbd020efd160fc672bd8dfba1a4678fe94358b",
            "0x000000000000000000000000c7039795003d558342a6e49bde271219319dd38e"
          ],
          "data": "0x",
          "blockHash": "0xf2ba459c732e0e5888e5fbd7fed2b0f0c4da04a7a0bccc280113c6c5cf5fe609",
          "blockNumber": "0x9f5880",
          "blockTimestamp": "0x69b4d338",
          "transactionHash": "0xdfb5e13aba35f4bc2150e09b0bb135ab73b48af309017e61ad676c1af6024e96",
          "transactionIndex": "0x72",
          "logIndex": "0xd3",
          "removed": false
        }
      ],
      "logsBloom": "0x00000000000000000000000000000000000000000080000000040000000000000000000000000000000000000000000000000000000000000000000000000000000200000000000000000000000000000000000000000000000000000000000000000000000000000000800000000000000000000000000000008000000000000000000000000000000000000000000010000000000200000000000000000000000000000000000000000000000000000000002000000000000000000000000000000400000000000000000000000000000000000000000000004000000000000000000000000000000000000000000000000000000001002000000000000000",
      "type": "0x2",
      "transactionHash": "0xdfb5e13aba35f4bc2150e09b0bb135ab73b48af309017e61ad676c1af6024e96",
      "transactionIndex": "0x72",
      "blockHash": "0xf2ba459c732e0e5888e5fbd7fed2b0f0c4da04a7a0bccc280113c6c5cf5fe609",
      "blockNumber": "0x9f5880",
      "gasUsed": "0x11274",
      "effectiveGasPrice": "0xf4249",
      "from": "0xa60d26d641fc807c9659df3f1a5e24dc54c6bad7",
      "to": "0x36c76e4b28997698819356c0c18e5892d168893b",
      "contractAddress": null
    }
  ],
  "libraries": [],
  "pending": [],
  "returns": {},
  "timestamp": 1773458231514,
  "chain": 11155111,
  "commit": null
}